{
  "contractName": "UserController",
  "abi": [
    {
      "inputs": [
        {
          "internalType": "address",
          "name": "_managerAddress",
          "type": "address"
        }
      ],
      "name": "setManagerAddress",
      "outputs": [],
      "stateMutability": "nonpayable",
      "type": "function"
    },
    {
      "inputs": [
        {
          "internalType": "address",
          "name": "_ownerAddress",
          "type": "address"
        }
      ],
      "name": "transferOwnership",
      "outputs": [],
      "stateMutability": "nonpayable",
      "type": "function"
    },
    {
      "inputs": [
        {
          "internalType": "bytes32",
          "name": "_username",
          "type": "bytes32"
        },
        {
          "internalType": "bytes32",
          "name": "_firstName",
          "type": "bytes32"
        },
        {
          "internalType": "bytes32",
          "name": "_lastName",
          "type": "bytes32"
        },
        {
          "internalType": "string",
          "name": "_bio",
          "type": "string"
        },
        {
          "internalType": "string",
          "name": "_gravatarEmail",
          "type": "string"
        }
      ],
      "name": "createUser",
      "outputs": [
        {
          "internalType": "uint256",
          "name": "",
          "type": "uint256"
        }
      ],
      "stateMutability": "nonpayable",
      "type": "function"
    }
  ],
  "bytecode": "0x608060405234801561001057600080fd5b50336000806101000a81548173ffffffffffffffffffffffffffffffffffffffff021916908373ffffffffffffffffffffffffffffffffffffffff1602179055506109f2806100606000396000f3fe608060405234801561001057600080fd5b50600436106100415760003560e01c80634143190814610046578063f2fde38b14610062578063f901175b1461007e575b600080fd5b610060600480360381019061005b91906104da565b6100ae565b005b61007c600480360381019061007791906104da565b61014a565b005b61009860048036038101906100939190610683565b61021f565b6040516100a5919061074f565b60405180910390f35b60008054906101000a900473ffffffffffffffffffffffffffffffffffffffff1673ffffffffffffffffffffffffffffffffffffffff163373ffffffffffffffffffffffffffffffffffffffff161461010657600080fd5b80600160006101000a81548173ffffffffffffffffffffffffffffffffffffffff021916908373ffffffffffffffffffffffffffffffffffffffff16021790555050565b60008054906101000a900473ffffffffffffffffffffffffffffffffffffffff1673ffffffffffffffffffffffffffffffffffffffff163373ffffffffffffffffffffffffffffffffffffffff16146101a257600080fd5b600073ffffffffffffffffffffffffffffffffffffffff168173ffffffffffffffffffffffffffffffffffffffff1614156101dc57600080fd5b806000806101000a81548173ffffffffffffffffffffffffffffffffffffffff021916908373ffffffffffffffffffffffffffffffffffffffff16021790555050565b600080600160009054906101000a900473ffffffffffffffffffffffffffffffffffffffff16905060008173ffffffffffffffffffffffffffffffffffffffff1663bf40fac16040518163ffffffff1660e01b8152600401610280906107c7565b602060405180830381865afa15801561029d573d6000803e3d6000fd5b505050506040513d601f19601f820116820180604052508101906102c191906107fc565b9050600081905060008173ffffffffffffffffffffffffffffffffffffffff166382d38954336040518263ffffffff1660e01b81526004016103039190610838565b602060405180830381865afa158015610320573d6000803e3d6000fd5b505050506040513d601f19601f82011682018060405250810190610344919061087f565b1461034e57600080fd5b60008173ffffffffffffffffffffffffffffffffffffffff1663ec4d88d78b6040518263ffffffff1660e01b815260040161038991906108bb565b602060405180830381865afa1580156103a6573d6000803e3d6000fd5b505050506040513d601f19601f820116820180604052508101906103ca919061087f565b146103d457600080fd5b8073ffffffffffffffffffffffffffffffffffffffff1663d399e63d338b8b8b8b8b6040518763ffffffff1660e01b81526004016104179695949392919061094d565b6020604051808303816000875af1158015610436573d6000803e3d6000fd5b505050506040513d601f19601f8201168201806040525081019061045a919061087f565b935050505095945050505050565b6000604051905090565b600080fd5b600080fd5b600073ffffffffffffffffffffffffffffffffffffffff82169050919050565b60006104a78261047c565b9050919050565b6104b78161049c565b81146104c257600080fd5b50565b6000813590506104d4816104ae565b92915050565b6000602082840312156104f0576104ef610472565b5b60006104fe848285016104c5565b91505092915050565b6000819050919050565b61051a81610507565b811461052557600080fd5b50565b60008135905061053781610511565b92915050565b600080fd5b600080fd5b6000601f19601f8301169050919050565b7f4e487b7100000000000000000000000000000000000000000000000000000000600052604160045260246000fd5b61059082610547565b810181811067ffffffffffffffff821117156105af576105ae610558565b5b80604052505050565b60006105c2610468565b90506105ce8282610587565b919050565b600067ffffffffffffffff8211156105ee576105ed610558565b5b6105f782610547565b9050602081019050919050565b82818337600083830152505050565b6000610626610621846105d3565b6105b8565b90508281526020810184848401111561064257610641610542565b5b61064d848285610604565b509392505050565b600082601f83011261066a5761066961053d565b5b813561067a848260208601610613565b91505092915050565b600080600080600060a0868803121561069f5761069e610472565b5b60006106ad88828901610528565b95505060206106be88828901610528565b94505060406106cf88828901610528565b935050606086013567ffffffffffffffff8111156106f0576106ef610477565b5b6106fc88828901610655565b925050608086013567ffffffffffffffff81111561071d5761071c610477565b5b61072988828901610655565b9150509295509295909350565b6000819050919050565b61074981610736565b82525050565b60006020820190506107646000830184610740565b92915050565b600082825260208201905092915050565b7f5573657253746f72616765000000000000000000000000000000000000000000600082015250565b60006107b1600b8361076a565b91506107bc8261077b565b602082019050919050565b600060208201905081810360008301526107e0816107a4565b9050919050565b6000815190506107f6816104ae565b92915050565b60006020828403121561081257610811610472565b5b6000610820848285016107e7565b91505092915050565b6108328161049c565b82525050565b600060208201905061084d6000830184610829565b92915050565b61085c81610736565b811461086757600080fd5b50565b60008151905061087981610853565b92915050565b60006020828403121561089557610894610472565b5b60006108a38482850161086a565b91505092915050565b6108b581610507565b82525050565b60006020820190506108d060008301846108ac565b92915050565b600081519050919050565b60005b838110156108ff5780820151818401526020810190506108e4565b8381111561090e576000848401525b50505050565b600061091f826108d6565b610929818561076a565b93506109398185602086016108e1565b61094281610547565b840191505092915050565b600060c0820190506109626000830189610829565b61096f60208301886108ac565b61097c60408301876108ac565b61098960608301866108ac565b818103608083015261099b8185610914565b905081810360a08301526109af8184610914565b905097965050505050505056fea264697066735822122081209d230de3c990a4b51943074787a662526bf31477ac0a554c7d80b44c89e964736f6c634300080a0033",
  "immutableReferences": {},
  "source": "// SPDX-License-Identifier: MIT\npragma solidity ^0.8.0;\n\nimport '../helpers/BaseController.sol';\nimport '../ContractManager.sol';\nimport './UserStorage.sol';\n\ncontract UserController is BaseController {\n  function createUser(\n    bytes32 _username,\n    bytes32 _firstName,\n    bytes32 _lastName,\n    string memory _bio,\n    string memory _gravatarEmail\n  ) public returns (uint) {\n    ContractManager _manager = ContractManager(managerAddress);\n\n    address _storageAddress = _manager.getAddress(\"UserStorage\");\n\n    UserStorage _storage = UserStorage(_storageAddress);\n\n    require(_storage.addresses(msg.sender) == 0);\n\n    require(_storage.usernames(_username) == 0);\n\n    return _storage.createUser(\n      msg.sender,\n      _username,\n      _firstName,\n      _lastName,\n      _bio,\n      _gravatarEmail\n    );\n  }\n}\n",
  "sourcePath": "/Users/yoelpc4/Sites/Nuxtjs/tweether/contracts/users/UserController.sol",
  "compiler": {
    "name": "solc",
    "version": "0.8.10+commit.fc410830.Emscripten.clang"
  },
  "schemaVersion": "3.4.4",
  "updatedAt": "2022-02-22T12:03:14.127Z",
  "networkType": "ethereum",
  "devdoc": {
    "kind": "dev",
    "methods": {},
    "version": 1
  },
  "userdoc": {
    "kind": "user",
    "methods": {},
    "version": 1
  }
}