{
  "contractName": "ContractManager",
  "abi": [
    {
      "inputs": [
        {
          "internalType": "address",
          "name": "_ownerAddress",
          "type": "address"
        }
      ],
      "name": "transferOwnership",
      "outputs": [],
      "stateMutability": "nonpayable",
      "type": "function"
    },
    {
      "inputs": [
        {
          "internalType": "string",
          "name": "_name",
          "type": "string"
        },
        {
          "internalType": "address",
          "name": "_address",
          "type": "address"
        }
      ],
      "name": "setAddress",
      "outputs": [],
      "stateMutability": "nonpayable",
      "type": "function"
    },
    {
      "inputs": [
        {
          "internalType": "string",
          "name": "_name",
          "type": "string"
        }
      ],
      "name": "getAddress",
      "outputs": [
        {
          "internalType": "address",
          "name": "",
          "type": "address"
        }
      ],
      "stateMutability": "view",
      "type": "function",
      "constant": true
    },
    {
      "inputs": [
        {
          "internalType": "string",
          "name": "_name",
          "type": "string"
        }
      ],
      "name": "deleteAddress",
      "outputs": [],
      "stateMutability": "nonpayable",
      "type": "function"
    }
  ],
  "bytecode": "0x608060405234801561001057600080fd5b50336000806101000a81548173ffffffffffffffffffffffffffffffffffffffff021916908373ffffffffffffffffffffffffffffffffffffffff16021790555061062f806100606000396000f3fe608060405234801561001057600080fd5b506004361061004c5760003560e01c80639b2ea4bd14610051578063bf40fac11461006d578063c193b42a1461009d578063f2fde38b146100b9575b600080fd5b61006b6004803603810190610066919061046c565b6100d5565b005b610087600480360381019061008291906104c8565b610136565b6040516100949190610520565b60405180910390f35b6100b760048036038101906100b291906104c8565b61017e565b005b6100d360048036038101906100ce919061053b565b6101df565b005b806001836040516100e691906105e2565b908152602001604051809103902060006101000a81548173ffffffffffffffffffffffffffffffffffffffff021916908373ffffffffffffffffffffffffffffffffffffffff1602179055505050565b600060018260405161014891906105e2565b908152602001604051809103902060009054906101000a900473ffffffffffffffffffffffffffffffffffffffff169050919050565b600060018260405161019091906105e2565b908152602001604051809103902060006101000a81548173ffffffffffffffffffffffffffffffffffffffff021916908373ffffffffffffffffffffffffffffffffffffffff16021790555050565b60008054906101000a900473ffffffffffffffffffffffffffffffffffffffff1673ffffffffffffffffffffffffffffffffffffffff163373ffffffffffffffffffffffffffffffffffffffff161461023757600080fd5b600073ffffffffffffffffffffffffffffffffffffffff168173ffffffffffffffffffffffffffffffffffffffff16141561027157600080fd5b806000806101000a81548173ffffffffffffffffffffffffffffffffffffffff021916908373ffffffffffffffffffffffffffffffffffffffff16021790555050565b6000604051905090565b600080fd5b600080fd5b600080fd5b600080fd5b6000601f19601f8301169050919050565b7f4e487b7100000000000000000000000000000000000000000000000000000000600052604160045260246000fd5b61031b826102d2565b810181811067ffffffffffffffff8211171561033a576103396102e3565b5b80604052505050565b600061034d6102b4565b90506103598282610312565b919050565b600067ffffffffffffffff821115610379576103786102e3565b5b610382826102d2565b9050602081019050919050565b82818337600083830152505050565b60006103b16103ac8461035e565b610343565b9050828152602081018484840111156103cd576103cc6102cd565b5b6103d884828561038f565b509392505050565b600082601f8301126103f5576103f46102c8565b5b813561040584826020860161039e565b91505092915050565b600073ffffffffffffffffffffffffffffffffffffffff82169050919050565b60006104398261040e565b9050919050565b6104498161042e565b811461045457600080fd5b50565b60008135905061046681610440565b92915050565b60008060408385031215610483576104826102be565b5b600083013567ffffffffffffffff8111156104a1576104a06102c3565b5b6104ad858286016103e0565b92505060206104be85828601610457565b9150509250929050565b6000602082840312156104de576104dd6102be565b5b600082013567ffffffffffffffff8111156104fc576104fb6102c3565b5b610508848285016103e0565b91505092915050565b61051a8161042e565b82525050565b60006020820190506105356000830184610511565b92915050565b600060208284031215610551576105506102be565b5b600061055f84828501610457565b91505092915050565b600081519050919050565b600081905092915050565b60005b8381101561059c578082015181840152602081019050610581565b838111156105ab576000848401525b50505050565b60006105bc82610568565b6105c68185610573565b93506105d681856020860161057e565b80840191505092915050565b60006105ee82846105b1565b91508190509291505056fea2646970667358221220ed419ae341722805f6bbc8b7bebc56b690716ffc6987cc334bc8daed387e45d064736f6c634300080a0033",
  "immutableReferences": {},
  "source": "// SPDX-License-Identifier: MIT\npragma solidity ^0.8.0;\n\nimport './helpers/Owned.sol';\n\ncontract ContractManager is Owned {\n  mapping(string => address) addresses;\n\n  function setAddress(string memory _name, address _address) public {\n    addresses[_name] = _address;\n  }\n\n  function getAddress(string memory _name) public view returns (address) {\n    return addresses[_name];\n  }\n\n  function deleteAddress(string memory _name) public {\n    addresses[_name] = address(0);\n  }\n}\n",
  "sourcePath": "/Users/yoelpc4/Sites/Nuxtjs/tweether/contracts/ContractManager.sol",
  "compiler": {
    "name": "solc",
    "version": "0.8.10+commit.fc410830.Emscripten.clang"
  },
  "schemaVersion": "3.4.4",
  "updatedAt": "2022-02-22T12:03:14.874Z",
  "networkType": "ethereum",
  "devdoc": {
    "kind": "dev",
    "methods": {},
    "version": 1
  },
  "userdoc": {
    "kind": "user",
    "methods": {},
    "version": 1
  }
}