{
  "contractName": "Owned",
  "abi": [
    {
      "inputs": [],
      "stateMutability": "nonpayable",
      "type": "constructor"
    },
    {
      "inputs": [
        {
          "internalType": "address",
          "name": "_ownerAddress",
          "type": "address"
        }
      ],
      "name": "transferOwnership",
      "outputs": [],
      "stateMutability": "nonpayable",
      "type": "function"
    }
  ],
  "bytecode": "0x608060405234801561001057600080fd5b50336000806101000a81548173ffffffffffffffffffffffffffffffffffffffff021916908373ffffffffffffffffffffffffffffffffffffffff1602179055506101e7806100606000396000f3fe608060405234801561001057600080fd5b506004361061002b5760003560e01c8063f2fde38b14610030575b600080fd5b61004a60048036038101906100459190610184565b61004c565b005b60008054906101000a900473ffffffffffffffffffffffffffffffffffffffff1673ffffffffffffffffffffffffffffffffffffffff163373ffffffffffffffffffffffffffffffffffffffff16146100a457600080fd5b600073ffffffffffffffffffffffffffffffffffffffff168173ffffffffffffffffffffffffffffffffffffffff1614156100de57600080fd5b806000806101000a81548173ffffffffffffffffffffffffffffffffffffffff021916908373ffffffffffffffffffffffffffffffffffffffff16021790555050565b600080fd5b600073ffffffffffffffffffffffffffffffffffffffff82169050919050565b600061015182610126565b9050919050565b61016181610146565b811461016c57600080fd5b50565b60008135905061017e81610158565b92915050565b60006020828403121561019a57610199610121565b5b60006101a88482850161016f565b9150509291505056fea2646970667358221220057f6967175661a454f3156f77ee15b03c654577aebc7b89db5ba54f65ccd8af64736f6c634300080a0033",
  "immutableReferences": {},
  "source": "// SPDX-License-Identifier: MIT\npragma solidity ^0.8.0;\n\ncontract Owned {\n  address ownerAddress;\n\n  modifier onlyOwner() {\n    require(msg.sender == ownerAddress);\n    _;\n  }\n\n  constructor() {\n    ownerAddress = msg.sender;\n  }\n\n  function transferOwnership(address _ownerAddress) public onlyOwner {\n    require(_ownerAddress != address(0));\n\n    ownerAddress = _ownerAddress;\n  }\n}\n",
  "sourcePath": "/Users/yoelpc4/Sites/Nuxtjs/tweether/contracts/helpers/Owned.sol",
  "compiler": {
    "name": "solc",
    "version": "0.8.10+commit.fc410830.Emscripten.clang"
  },
  "schemaVersion": "3.4.4",
  "updatedAt": "2021-12-31T16:58:59.870Z",
  "devdoc": {
    "kind": "dev",
    "methods": {},
    "version": 1
  },
  "userdoc": {
    "kind": "user",
    "methods": {},
    "version": 1
  }
}