{
  "contractName": "TweetController",
  "abi": [
    {
      "inputs": [
        {
          "internalType": "address",
          "name": "_managerAddress",
          "type": "address"
        }
      ],
      "name": "setManagerAddress",
      "outputs": [],
      "stateMutability": "nonpayable",
      "type": "function"
    },
    {
      "inputs": [
        {
          "internalType": "address",
          "name": "_ownerAddress",
          "type": "address"
        }
      ],
      "name": "transferOwnership",
      "outputs": [],
      "stateMutability": "nonpayable",
      "type": "function"
    },
    {
      "inputs": [
        {
          "internalType": "string",
          "name": "_text",
          "type": "string"
        }
      ],
      "name": "createTweet",
      "outputs": [
        {
          "internalType": "uint256",
          "name": "",
          "type": "uint256"
        }
      ],
      "stateMutability": "nonpayable",
      "type": "function"
    }
  ],
  "bytecode": "0x608060405234801561001057600080fd5b50336000806101000a81548173ffffffffffffffffffffffffffffffffffffffff021916908373ffffffffffffffffffffffffffffffffffffffff16021790555061094d806100606000396000f3fe608060405234801561001057600080fd5b50600436106100415760003560e01c806341431908146100465780637c9cd2bc14610062578063f2fde38b14610092575b600080fd5b610060600480360381019061005b91906104d2565b6100ae565b005b61007c60048036038101906100779190610645565b61014a565b60405161008991906106a7565b60405180910390f35b6100ac60048036038101906100a791906104d2565b61038b565b005b60008054906101000a900473ffffffffffffffffffffffffffffffffffffffff1673ffffffffffffffffffffffffffffffffffffffff163373ffffffffffffffffffffffffffffffffffffffff161461010657600080fd5b80600160006101000a81548173ffffffffffffffffffffffffffffffffffffffff021916908373ffffffffffffffffffffffffffffffffffffffff16021790555050565b600080600160009054906101000a900473ffffffffffffffffffffffffffffffffffffffff16905060008173ffffffffffffffffffffffffffffffffffffffff1663bf40fac16040518163ffffffff1660e01b81526004016101ab9061071f565b602060405180830381865afa1580156101c8573d6000803e3d6000fd5b505050506040513d601f19601f820116820180604052508101906101ec9190610754565b9050600081905060008173ffffffffffffffffffffffffffffffffffffffff166382d38954336040518263ffffffff1660e01b815260040161022e9190610790565b602060405180830381865afa15801561024b573d6000803e3d6000fd5b505050506040513d601f19601f8201168201806040525081019061026f91906107d7565b9050600081141561027f57600080fd5b60008473ffffffffffffffffffffffffffffffffffffffff1663bf40fac16040518163ffffffff1660e01b81526004016102b890610850565b602060405180830381865afa1580156102d5573d6000803e3d6000fd5b505050506040513d601f19601f820116820180604052508101906102f99190610754565b905060008190508073ffffffffffffffffffffffffffffffffffffffff16637cc82f20848a6040518363ffffffff1660e01b815260040161033b9291906108e7565b6020604051808303816000875af115801561035a573d6000803e3d6000fd5b505050506040513d601f19601f8201168201806040525081019061037e91906107d7565b9650505050505050919050565b60008054906101000a900473ffffffffffffffffffffffffffffffffffffffff1673ffffffffffffffffffffffffffffffffffffffff163373ffffffffffffffffffffffffffffffffffffffff16146103e357600080fd5b600073ffffffffffffffffffffffffffffffffffffffff168173ffffffffffffffffffffffffffffffffffffffff16141561041d57600080fd5b806000806101000a81548173ffffffffffffffffffffffffffffffffffffffff021916908373ffffffffffffffffffffffffffffffffffffffff16021790555050565b6000604051905090565b600080fd5b600080fd5b600073ffffffffffffffffffffffffffffffffffffffff82169050919050565b600061049f82610474565b9050919050565b6104af81610494565b81146104ba57600080fd5b50565b6000813590506104cc816104a6565b92915050565b6000602082840312156104e8576104e761046a565b5b60006104f6848285016104bd565b91505092915050565b600080fd5b600080fd5b6000601f19601f8301169050919050565b7f4e487b7100000000000000000000000000000000000000000000000000000000600052604160045260246000fd5b61055282610509565b810181811067ffffffffffffffff821117156105715761057061051a565b5b80604052505050565b6000610584610460565b90506105908282610549565b919050565b600067ffffffffffffffff8211156105b0576105af61051a565b5b6105b982610509565b9050602081019050919050565b82818337600083830152505050565b60006105e86105e384610595565b61057a565b90508281526020810184848401111561060457610603610504565b5b61060f8482856105c6565b509392505050565b600082601f83011261062c5761062b6104ff565b5b813561063c8482602086016105d5565b91505092915050565b60006020828403121561065b5761065a61046a565b5b600082013567ffffffffffffffff8111156106795761067861046f565b5b61068584828501610617565b91505092915050565b6000819050919050565b6106a18161068e565b82525050565b60006020820190506106bc6000830184610698565b92915050565b600082825260208201905092915050565b7f5573657253746f72616765000000000000000000000000000000000000000000600082015250565b6000610709600b836106c2565b9150610714826106d3565b602082019050919050565b60006020820190508181036000830152610738816106fc565b9050919050565b60008151905061074e816104a6565b92915050565b60006020828403121561076a5761076961046a565b5b60006107788482850161073f565b91505092915050565b61078a81610494565b82525050565b60006020820190506107a56000830184610781565b92915050565b6107b48161068e565b81146107bf57600080fd5b50565b6000815190506107d1816107ab565b92915050565b6000602082840312156107ed576107ec61046a565b5b60006107fb848285016107c2565b91505092915050565b7f547765657453746f726167650000000000000000000000000000000000000000600082015250565b600061083a600c836106c2565b915061084582610804565b602082019050919050565b600060208201905081810360008301526108698161082d565b9050919050565b600081519050919050565b60005b8381101561089957808201518184015260208101905061087e565b838111156108a8576000848401525b50505050565b60006108b982610870565b6108c381856106c2565b93506108d381856020860161087b565b6108dc81610509565b840191505092915050565b60006040820190506108fc6000830185610698565b818103602083015261090e81846108ae565b9050939250505056fea2646970667358221220acb776e826b6252d49c24d8e9f5a9acb07593949094934baf60df98cbb7410d864736f6c634300080a0033",
  "immutableReferences": {},
  "source": "// SPDX-License-Identifier: MIT\npragma solidity ^0.8.0;\n\nimport '../helpers/BaseController.sol';\nimport '../ContractManager.sol';\nimport './TweetStorage.sol';\nimport '../users/UserStorage.sol';\n\ncontract TweetController is BaseController {\n  function createTweet(string memory _text) public returns (uint) {\n    ContractManager _manager = ContractManager(managerAddress);\n\n    address _userStorageAddress = _manager.getAddress(\"UserStorage\");\n\n    UserStorage _userStorage = UserStorage(_userStorageAddress);\n\n    // get user id from stored addresses\n    uint _userId = _userStorage.addresses(msg.sender);\n\n    // make sure user id isn't null\n    require(_userId != 0);\n\n    address _tweetStorageAddress = _manager.getAddress(\"TweetStorage\");\n\n    TweetStorage _tweetStorage = TweetStorage(_tweetStorageAddress);\n\n    return _tweetStorage.createTweet(_userId, _text);\n  }\n}\n",
  "sourcePath": "/Users/yoelpc4/Sites/Nuxtjs/tweether/contracts/tweets/TweetController.sol",
  "compiler": {
    "name": "solc",
    "version": "0.8.10+commit.fc410830.Emscripten.clang"
  },
  "schemaVersion": "3.4.4",
  "updatedAt": "2022-02-22T12:03:14.864Z",
  "networkType": "ethereum",
  "devdoc": {
    "kind": "dev",
    "methods": {},
    "version": 1
  },
  "userdoc": {
    "kind": "user",
    "methods": {},
    "version": 1
  }
}