{
  "contractName": "TweetherToken",
  "abi": [
    {
      "inputs": [],
      "stateMutability": "nonpayable",
      "type": "constructor"
    },
    {
      "anonymous": false,
      "inputs": [
        {
          "indexed": true,
          "internalType": "address",
          "name": "owner",
          "type": "address"
        },
        {
          "indexed": true,
          "internalType": "address",
          "name": "spender",
          "type": "address"
        },
        {
          "indexed": false,
          "internalType": "uint256",
          "name": "value",
          "type": "uint256"
        }
      ],
      "name": "Approval",
      "type": "event"
    },
    {
      "anonymous": false,
      "inputs": [
        {
          "indexed": true,
          "internalType": "address",
          "name": "from",
          "type": "address"
        },
        {
          "indexed": true,
          "internalType": "address",
          "name": "to",
          "type": "address"
        },
        {
          "indexed": false,
          "internalType": "uint256",
          "name": "value",
          "type": "uint256"
        }
      ],
      "name": "Transfer",
      "type": "event"
    },
    {
      "inputs": [],
      "name": "FOR_FOUNDER",
      "outputs": [
        {
          "internalType": "uint256",
          "name": "",
          "type": "uint256"
        }
      ],
      "stateMutability": "view",
      "type": "function",
      "constant": true
    },
    {
      "inputs": [],
      "name": "FOR_ICO",
      "outputs": [
        {
          "internalType": "uint256",
          "name": "",
          "type": "uint256"
        }
      ],
      "stateMutability": "view",
      "type": "function",
      "constant": true
    },
    {
      "inputs": [
        {
          "internalType": "address",
          "name": "owner",
          "type": "address"
        },
        {
          "internalType": "address",
          "name": "spender",
          "type": "address"
        }
      ],
      "name": "allowance",
      "outputs": [
        {
          "internalType": "uint256",
          "name": "",
          "type": "uint256"
        }
      ],
      "stateMutability": "view",
      "type": "function",
      "constant": true
    },
    {
      "inputs": [
        {
          "internalType": "address",
          "name": "spender",
          "type": "address"
        },
        {
          "internalType": "uint256",
          "name": "amount",
          "type": "uint256"
        }
      ],
      "name": "approve",
      "outputs": [
        {
          "internalType": "bool",
          "name": "",
          "type": "bool"
        }
      ],
      "stateMutability": "nonpayable",
      "type": "function"
    },
    {
      "inputs": [
        {
          "internalType": "address",
          "name": "account",
          "type": "address"
        }
      ],
      "name": "balanceOf",
      "outputs": [
        {
          "internalType": "uint256",
          "name": "",
          "type": "uint256"
        }
      ],
      "stateMutability": "view",
      "type": "function",
      "constant": true
    },
    {
      "inputs": [
        {
          "internalType": "address",
          "name": "spender",
          "type": "address"
        },
        {
          "internalType": "uint256",
          "name": "subtractedValue",
          "type": "uint256"
        }
      ],
      "name": "decreaseAllowance",
      "outputs": [
        {
          "internalType": "bool",
          "name": "",
          "type": "bool"
        }
      ],
      "stateMutability": "nonpayable",
      "type": "function"
    },
    {
      "inputs": [
        {
          "internalType": "address",
          "name": "spender",
          "type": "address"
        },
        {
          "internalType": "uint256",
          "name": "addedValue",
          "type": "uint256"
        }
      ],
      "name": "increaseAllowance",
      "outputs": [
        {
          "internalType": "bool",
          "name": "",
          "type": "bool"
        }
      ],
      "stateMutability": "nonpayable",
      "type": "function"
    },
    {
      "inputs": [],
      "name": "name",
      "outputs": [
        {
          "internalType": "string",
          "name": "",
          "type": "string"
        }
      ],
      "stateMutability": "view",
      "type": "function",
      "constant": true
    },
    {
      "inputs": [],
      "name": "symbol",
      "outputs": [
        {
          "internalType": "string",
          "name": "",
          "type": "string"
        }
      ],
      "stateMutability": "view",
      "type": "function",
      "constant": true
    },
    {
      "inputs": [],
      "name": "totalSupply",
      "outputs": [
        {
          "internalType": "uint256",
          "name": "",
          "type": "uint256"
        }
      ],
      "stateMutability": "view",
      "type": "function",
      "constant": true
    },
    {
      "inputs": [
        {
          "internalType": "address",
          "name": "recipient",
          "type": "address"
        },
        {
          "internalType": "uint256",
          "name": "amount",
          "type": "uint256"
        }
      ],
      "name": "transfer",
      "outputs": [
        {
          "internalType": "bool",
          "name": "",
          "type": "bool"
        }
      ],
      "stateMutability": "nonpayable",
      "type": "function"
    },
    {
      "inputs": [
        {
          "internalType": "address",
          "name": "sender",
          "type": "address"
        },
        {
          "internalType": "address",
          "name": "recipient",
          "type": "address"
        },
        {
          "internalType": "uint256",
          "name": "amount",
          "type": "uint256"
        }
      ],
      "name": "transferFrom",
      "outputs": [
        {
          "internalType": "bool",
          "name": "",
          "type": "bool"
        }
      ],
      "stateMutability": "nonpayable",
      "type": "function"
    },
    {
      "inputs": [
        {
          "internalType": "address",
          "name": "_ownerAddress",
          "type": "address"
        }
      ],
      "name": "transferOwnership",
      "outputs": [],
      "stateMutability": "nonpayable",
      "type": "function"
    },
    {
      "inputs": [],
      "name": "decimals",
      "outputs": [
        {
          "internalType": "uint8",
          "name": "",
          "type": "uint8"
        }
      ],
      "stateMutability": "view",
      "type": "function",
      "constant": true
    },
    {
      "inputs": [
        {
          "internalType": "address",
          "name": "_icoAddress",
          "type": "address"
        }
      ],
      "name": "fundICO",
      "outputs": [],
      "stateMutability": "nonpayable",
      "type": "function"
    }
  ],
  "bytecode": "0x6080604052620b71b06006556203d0906007553480156200001f57600080fd5b506040518060400160405280600d81526020017f5477656574686572546f6b656e000000000000000000000000000000000000008152506040518060400160405280600381526020017f54574500000000000000000000000000000000000000000000000000000000008152508160039080519060200190620000a4929190620002ad565b508060049080519060200190620000bd929190620002ad565b50505033600560006101000a81548173ffffffffffffffffffffffffffffffffffffffff021916908373ffffffffffffffffffffffffffffffffffffffff160217905550620001243360065460075462000118919062000396565b6200012a60201b60201c565b62000509565b600073ffffffffffffffffffffffffffffffffffffffff168273ffffffffffffffffffffffffffffffffffffffff1614156200019d576040517f08c379a0000000000000000000000000000000000000000000000000000000008152600401620001949062000454565b60405180910390fd5b620001b160008383620002a360201b60201c565b8060026000828254620001c5919062000396565b92505081905550806000808473ffffffffffffffffffffffffffffffffffffffff1673ffffffffffffffffffffffffffffffffffffffff16815260200190815260200160002060008282546200021c919062000396565b925050819055508173ffffffffffffffffffffffffffffffffffffffff16600073ffffffffffffffffffffffffffffffffffffffff167fddf252ad1be2c89b69c2b068fc378daa952ba7f163c4a11628f55a4df523b3ef8360405162000283919062000487565b60405180910390a36200029f60008383620002a860201b60201c565b5050565b505050565b505050565b828054620002bb90620004d3565b90600052602060002090601f016020900481019282620002df57600085556200032b565b82601f10620002fa57805160ff19168380011785556200032b565b828001600101855582156200032b579182015b828111156200032a5782518255916020019190600101906200030d565b5b5090506200033a91906200033e565b5090565b5b80821115620003595760008160009055506001016200033f565b5090565b6000819050919050565b7f4e487b7100000000000000000000000000000000000000000000000000000000600052601160045260246000fd5b6000620003a3826200035d565b9150620003b0836200035d565b9250827fffffffffffffffffffffffffffffffffffffffffffffffffffffffffffffffff03821115620003e857620003e762000367565b5b828201905092915050565b600082825260208201905092915050565b7f45524332303a206d696e7420746f20746865207a65726f206164647265737300600082015250565b60006200043c601f83620003f3565b9150620004498262000404565b602082019050919050565b600060208201905081810360008301526200046f816200042d565b9050919050565b62000481816200035d565b82525050565b60006020820190506200049e600083018462000476565b92915050565b7f4e487b7100000000000000000000000000000000000000000000000000000000600052602260045260246000fd5b60006002820490506001821680620004ec57607f821691505b60208210811415620005035762000502620004a4565b5b50919050565b6115b480620005196000396000f3fe608060405234801561001057600080fd5b50600436106100f55760003560e01c80633950935111610097578063a9059cbb11610066578063a9059cbb1461029e578063cd367936146102ce578063dd62ed3e146102ea578063f2fde38b1461031a576100f5565b806339509351146101f057806370a082311461022057806395d89b4114610250578063a457c2d71461026e576100f5565b8063229233b6116100d3578063229233b61461016657806323b872dd14610184578063313ce567146101b457806332a52fcd146101d2576100f5565b806306fdde03146100fa578063095ea7b31461011857806318160ddd14610148575b600080fd5b610102610336565b60405161010f9190610e48565b60405180910390f35b610132600480360381019061012d9190610f03565b6103c8565b60405161013f9190610f5e565b60405180910390f35b6101506103e6565b60405161015d9190610f88565b60405180910390f35b61016e6103f0565b60405161017b9190610f88565b60405180910390f35b61019e60048036038101906101999190610fa3565b6103f6565b6040516101ab9190610f5e565b60405180910390f35b6101bc6104ee565b6040516101c99190611012565b60405180910390f35b6101da6104f3565b6040516101e79190610f88565b60405180910390f35b61020a60048036038101906102059190610f03565b6104f9565b6040516102179190610f5e565b60405180910390f35b61023a6004803603810190610235919061102d565b6105a5565b6040516102479190610f88565b60405180910390f35b6102586105ed565b6040516102659190610e48565b60405180910390f35b61028860048036038101906102839190610f03565b61067f565b6040516102959190610f5e565b60405180910390f35b6102b860048036038101906102b39190610f03565b61076a565b6040516102c59190610f5e565b60405180910390f35b6102e860048036038101906102e3919061102d565b610788565b005b61030460048036038101906102ff919061105a565b6107f2565b6040516103119190610f88565b60405180910390f35b610334600480360381019061032f919061102d565b610879565b005b606060038054610345906110c9565b80601f0160208091040260200160405190810160405280929190818152602001828054610371906110c9565b80156103be5780601f10610393576101008083540402835291602001916103be565b820191906000526020600020905b8154815290600101906020018083116103a157829003601f168201915b5050505050905090565b60006103dc6103d5610951565b8484610959565b6001905092915050565b6000600254905090565b60075481565b6000610403848484610b24565b6000600160008673ffffffffffffffffffffffffffffffffffffffff1673ffffffffffffffffffffffffffffffffffffffff168152602001908152602001600020600061044e610951565b73ffffffffffffffffffffffffffffffffffffffff1673ffffffffffffffffffffffffffffffffffffffff168152602001908152602001600020549050828110156104ce576040517f08c379a00000000000000000000000000000000000000000000000000000000081526004016104c59061116d565b60405180910390fd5b6104e2856104da610951565b858403610959565b60019150509392505050565b600090565b60065481565b600061059b610506610951565b848460016000610514610951565b73ffffffffffffffffffffffffffffffffffffffff1673ffffffffffffffffffffffffffffffffffffffff16815260200190815260200160002060008873ffffffffffffffffffffffffffffffffffffffff1673ffffffffffffffffffffffffffffffffffffffff1681526020019081526020016000205461059691906111bc565b610959565b6001905092915050565b60008060008373ffffffffffffffffffffffffffffffffffffffff1673ffffffffffffffffffffffffffffffffffffffff168152602001908152602001600020549050919050565b6060600480546105fc906110c9565b80601f0160208091040260200160405190810160405280929190818152602001828054610628906110c9565b80156106755780601f1061064a57610100808354040283529160200191610675565b820191906000526020600020905b81548152906001019060200180831161065857829003601f168201915b5050505050905090565b6000806001600061068e610951565b73ffffffffffffffffffffffffffffffffffffffff1673ffffffffffffffffffffffffffffffffffffffff16815260200190815260200160002060008573ffffffffffffffffffffffffffffffffffffffff1673ffffffffffffffffffffffffffffffffffffffff1681526020019081526020016000205490508281101561074b576040517f08c379a000000000000000000000000000000000000000000000000000000000815260040161074290611284565b60405180910390fd5b61075f610756610951565b85858403610959565b600191505092915050565b600061077e610777610951565b8484610b24565b6001905092915050565b600560009054906101000a900473ffffffffffffffffffffffffffffffffffffffff1673ffffffffffffffffffffffffffffffffffffffff163373ffffffffffffffffffffffffffffffffffffffff16146107e257600080fd5b6107ee8160065461076a565b5050565b6000600160008473ffffffffffffffffffffffffffffffffffffffff1673ffffffffffffffffffffffffffffffffffffffff16815260200190815260200160002060008373ffffffffffffffffffffffffffffffffffffffff1673ffffffffffffffffffffffffffffffffffffffff16815260200190815260200160002054905092915050565b600560009054906101000a900473ffffffffffffffffffffffffffffffffffffffff1673ffffffffffffffffffffffffffffffffffffffff163373ffffffffffffffffffffffffffffffffffffffff16146108d357600080fd5b600073ffffffffffffffffffffffffffffffffffffffff168173ffffffffffffffffffffffffffffffffffffffff16141561090d57600080fd5b80600560006101000a81548173ffffffffffffffffffffffffffffffffffffffff021916908373ffffffffffffffffffffffffffffffffffffffff16021790555050565b600033905090565b600073ffffffffffffffffffffffffffffffffffffffff168373ffffffffffffffffffffffffffffffffffffffff1614156109c9576040517f08c379a00000000000000000000000000000000000000000000000000000000081526004016109c090611316565b60405180910390fd5b600073ffffffffffffffffffffffffffffffffffffffff168273ffffffffffffffffffffffffffffffffffffffff161415610a39576040517f08c379a0000000000000000000000000000000000000000000000000000000008152600401610a30906113a8565b60405180910390fd5b80600160008573ffffffffffffffffffffffffffffffffffffffff1673ffffffffffffffffffffffffffffffffffffffff16815260200190815260200160002060008473ffffffffffffffffffffffffffffffffffffffff1673ffffffffffffffffffffffffffffffffffffffff168152602001908152602001600020819055508173ffffffffffffffffffffffffffffffffffffffff168373ffffffffffffffffffffffffffffffffffffffff167f8c5be1e5ebec7d5bd14f71427d1e84f3dd0314c0f7b2291e5b200ac8c7c3b92583604051610b179190610f88565b60405180910390a3505050565b600073ffffffffffffffffffffffffffffffffffffffff168373ffffffffffffffffffffffffffffffffffffffff161415610b94576040517f08c379a0000000000000000000000000000000000000000000000000000000008152600401610b8b9061143a565b60405180910390fd5b600073ffffffffffffffffffffffffffffffffffffffff168273ffffffffffffffffffffffffffffffffffffffff161415610c04576040517f08c379a0000000000000000000000000000000000000000000000000000000008152600401610bfb906114cc565b60405180910390fd5b610c0f838383610da5565b60008060008573ffffffffffffffffffffffffffffffffffffffff1673ffffffffffffffffffffffffffffffffffffffff16815260200190815260200160002054905081811015610c95576040517f08c379a0000000000000000000000000000000000000000000000000000000008152600401610c8c9061155e565b60405180910390fd5b8181036000808673ffffffffffffffffffffffffffffffffffffffff1673ffffffffffffffffffffffffffffffffffffffff16815260200190815260200160002081905550816000808573ffffffffffffffffffffffffffffffffffffffff1673ffffffffffffffffffffffffffffffffffffffff1681526020019081526020016000206000828254610d2891906111bc565b925050819055508273ffffffffffffffffffffffffffffffffffffffff168473ffffffffffffffffffffffffffffffffffffffff167fddf252ad1be2c89b69c2b068fc378daa952ba7f163c4a11628f55a4df523b3ef84604051610d8c9190610f88565b60405180910390a3610d9f848484610daa565b50505050565b505050565b505050565b600081519050919050565b600082825260208201905092915050565b60005b83811015610de9578082015181840152602081019050610dce565b83811115610df8576000848401525b50505050565b6000601f19601f8301169050919050565b6000610e1a82610daf565b610e248185610dba565b9350610e34818560208601610dcb565b610e3d81610dfe565b840191505092915050565b60006020820190508181036000830152610e628184610e0f565b905092915050565b600080fd5b600073ffffffffffffffffffffffffffffffffffffffff82169050919050565b6000610e9a82610e6f565b9050919050565b610eaa81610e8f565b8114610eb557600080fd5b50565b600081359050610ec781610ea1565b92915050565b6000819050919050565b610ee081610ecd565b8114610eeb57600080fd5b50565b600081359050610efd81610ed7565b92915050565b60008060408385031215610f1a57610f19610e6a565b5b6000610f2885828601610eb8565b9250506020610f3985828601610eee565b9150509250929050565b60008115159050919050565b610f5881610f43565b82525050565b6000602082019050610f736000830184610f4f565b92915050565b610f8281610ecd565b82525050565b6000602082019050610f9d6000830184610f79565b92915050565b600080600060608486031215610fbc57610fbb610e6a565b5b6000610fca86828701610eb8565b9350506020610fdb86828701610eb8565b9250506040610fec86828701610eee565b9150509250925092565b600060ff82169050919050565b61100c81610ff6565b82525050565b60006020820190506110276000830184611003565b92915050565b60006020828403121561104357611042610e6a565b5b600061105184828501610eb8565b91505092915050565b6000806040838503121561107157611070610e6a565b5b600061107f85828601610eb8565b925050602061109085828601610eb8565b9150509250929050565b7f4e487b7100000000000000000000000000000000000000000000000000000000600052602260045260246000fd5b600060028204905060018216806110e157607f821691505b602082108114156110f5576110f461109a565b5b50919050565b7f45524332303a207472616e7366657220616d6f756e742065786365656473206160008201527f6c6c6f77616e6365000000000000000000000000000000000000000000000000602082015250565b6000611157602883610dba565b9150611162826110fb565b604082019050919050565b600060208201905081810360008301526111868161114a565b9050919050565b7f4e487b7100000000000000000000000000000000000000000000000000000000600052601160045260246000fd5b60006111c782610ecd565b91506111d283610ecd565b9250827fffffffffffffffffffffffffffffffffffffffffffffffffffffffffffffffff038211156112075761120661118d565b5b828201905092915050565b7f45524332303a2064656372656173656420616c6c6f77616e63652062656c6f7760008201527f207a65726f000000000000000000000000000000000000000000000000000000602082015250565b600061126e602583610dba565b915061127982611212565b604082019050919050565b6000602082019050818103600083015261129d81611261565b9050919050565b7f45524332303a20617070726f76652066726f6d20746865207a65726f2061646460008201527f7265737300000000000000000000000000000000000000000000000000000000602082015250565b6000611300602483610dba565b915061130b826112a4565b604082019050919050565b6000602082019050818103600083015261132f816112f3565b9050919050565b7f45524332303a20617070726f766520746f20746865207a65726f20616464726560008201527f7373000000000000000000000000000000000000000000000000000000000000602082015250565b6000611392602283610dba565b915061139d82611336565b604082019050919050565b600060208201905081810360008301526113c181611385565b9050919050565b7f45524332303a207472616e736665722066726f6d20746865207a65726f20616460008201527f6472657373000000000000000000000000000000000000000000000000000000602082015250565b6000611424602583610dba565b915061142f826113c8565b604082019050919050565b6000602082019050818103600083015261145381611417565b9050919050565b7f45524332303a207472616e7366657220746f20746865207a65726f206164647260008201527f6573730000000000000000000000000000000000000000000000000000000000602082015250565b60006114b6602383610dba565b91506114c18261145a565b604082019050919050565b600060208201905081810360008301526114e5816114a9565b9050919050565b7f45524332303a207472616e7366657220616d6f756e742065786365656473206260008201527f616c616e63650000000000000000000000000000000000000000000000000000602082015250565b6000611548602683610dba565b9150611553826114ec565b604082019050919050565b600060208201905081810360008301526115778161153b565b905091905056fea264697066735822122077fbe65d577d2f667a3a23b6b742952e9a14a741b80fc3d9f662f5d136f0ffda64736f6c634300080a0033",
  "immutableReferences": {},
  "source": "// SPDX-License-Identifier: MIT\npragma solidity ^0.8.0;\n\nimport \"@openzeppelin/contracts/token/ERC20/ERC20.sol\";\nimport \"../helpers/Owned.sol\";\n\ncontract TweetherToken is ERC20, Owned {\n  uint256 public FOR_ICO = 750000;\n\n  uint256 public FOR_FOUNDER = 250000;\n\n  constructor() ERC20(\"TweetherToken\", \"TWE\") {\n    _mint(msg.sender, FOR_FOUNDER + FOR_ICO);\n  }\n\n  function decimals() public view virtual override returns (uint8) {\n    return 0;\n  }\n\n  function fundICO(address _icoAddress) public onlyOwner {\n    transfer(_icoAddress, FOR_ICO);\n  }\n}\n",
  "sourcePath": "/Users/yoelpc4/Sites/Nuxtjs/tweether/contracts/token/TweetherToken.sol",
  "compiler": {
    "name": "solc",
    "version": "0.8.10+commit.fc410830.Emscripten.clang"
  },
  "schemaVersion": "3.4.4",
  "updatedAt": "2022-02-22T12:03:15.889Z",
  "networkType": "ethereum",
  "devdoc": {
    "kind": "dev",
    "methods": {
      "allowance(address,address)": {
        "details": "See {IERC20-allowance}."
      },
      "approve(address,uint256)": {
        "details": "See {IERC20-approve}. Requirements: - `spender` cannot be the zero address."
      },
      "balanceOf(address)": {
        "details": "See {IERC20-balanceOf}."
      },
      "decimals()": {
        "details": "Returns the number of decimals used to get its user representation. For example, if `decimals` equals `2`, a balance of `505` tokens should be displayed to a user as `5.05` (`505 / 10 ** 2`). Tokens usually opt for a value of 18, imitating the relationship between Ether and Wei. This is the value {ERC20} uses, unless this function is overridden; NOTE: This information is only used for _display_ purposes: it in no way affects any of the arithmetic of the contract, including {IERC20-balanceOf} and {IERC20-transfer}."
      },
      "decreaseAllowance(address,uint256)": {
        "details": "Atomically decreases the allowance granted to `spender` by the caller. This is an alternative to {approve} that can be used as a mitigation for problems described in {IERC20-approve}. Emits an {Approval} event indicating the updated allowance. Requirements: - `spender` cannot be the zero address. - `spender` must have allowance for the caller of at least `subtractedValue`."
      },
      "increaseAllowance(address,uint256)": {
        "details": "Atomically increases the allowance granted to `spender` by the caller. This is an alternative to {approve} that can be used as a mitigation for problems described in {IERC20-approve}. Emits an {Approval} event indicating the updated allowance. Requirements: - `spender` cannot be the zero address."
      },
      "name()": {
        "details": "Returns the name of the token."
      },
      "symbol()": {
        "details": "Returns the symbol of the token, usually a shorter version of the name."
      },
      "totalSupply()": {
        "details": "See {IERC20-totalSupply}."
      },
      "transfer(address,uint256)": {
        "details": "See {IERC20-transfer}. Requirements: - `recipient` cannot be the zero address. - the caller must have a balance of at least `amount`."
      },
      "transferFrom(address,address,uint256)": {
        "details": "See {IERC20-transferFrom}. Emits an {Approval} event indicating the updated allowance. This is not required by the EIP. See the note at the beginning of {ERC20}. Requirements: - `sender` and `recipient` cannot be the zero address. - `sender` must have a balance of at least `amount`. - the caller must have allowance for ``sender``'s tokens of at least `amount`."
      }
    },
    "version": 1
  },
  "userdoc": {
    "kind": "user",
    "methods": {},
    "version": 1
  }
}