{
  "contractName": "TweetherICO",
  "abi": [
    {
      "inputs": [
        {
          "internalType": "address",
          "name": "_tokenAddress",
          "type": "address"
        }
      ],
      "stateMutability": "nonpayable",
      "type": "constructor"
    },
    {
      "inputs": [],
      "name": "RATE",
      "outputs": [
        {
          "internalType": "uint256",
          "name": "",
          "type": "uint256"
        }
      ],
      "stateMutability": "view",
      "type": "function",
      "constant": true
    },
    {
      "stateMutability": "payable",
      "type": "receive",
      "payable": true
    }
  ],
  "bytecode": "0x60806040526103e860015534801561001657600080fd5b5060405161047a38038061047a833981810160405281019061003891906100e1565b806000806101000a81548173ffffffffffffffffffffffffffffffffffffffff021916908373ffffffffffffffffffffffffffffffffffffffff1602179055505061010e565b600080fd5b600073ffffffffffffffffffffffffffffffffffffffff82169050919050565b60006100ae82610083565b9050919050565b6100be816100a3565b81146100c957600080fd5b50565b6000815190506100db816100b5565b92915050565b6000602082840312156100f7576100f661007e565b5b6000610105848285016100cc565b91505092915050565b61035d8061011d6000396000f3fe6080604052600436106100225760003560e01c8063664e9704146100db576100d6565b366100d657600061003234610106565b905060008054906101000a900473ffffffffffffffffffffffffffffffffffffffff1673ffffffffffffffffffffffffffffffffffffffff1663a9059cbb33836040518363ffffffff1660e01b815260040161008f929190610190565b6020604051808303816000875af11580156100ae573d6000803e3d6000fd5b505050506040513d601f19601f820116820180604052508101906100d291906101f6565b5050005b600080fd5b3480156100e757600080fd5b506100f0610130565b6040516100fd9190610223565b60405180910390f35b6000600154670de0b6b3a76400008361011f919061029c565b61012991906102cd565b9050919050565b60015481565b600073ffffffffffffffffffffffffffffffffffffffff82169050919050565b600061016182610136565b9050919050565b61017181610156565b82525050565b6000819050919050565b61018a81610177565b82525050565b60006040820190506101a56000830185610168565b6101b26020830184610181565b9392505050565b600080fd5b60008115159050919050565b6101d3816101be565b81146101de57600080fd5b50565b6000815190506101f0816101ca565b92915050565b60006020828403121561020c5761020b6101b9565b5b600061021a848285016101e1565b91505092915050565b60006020820190506102386000830184610181565b92915050565b7f4e487b7100000000000000000000000000000000000000000000000000000000600052601260045260246000fd5b7f4e487b7100000000000000000000000000000000000000000000000000000000600052601160045260246000fd5b60006102a782610177565b91506102b283610177565b9250826102c2576102c161023e565b5b828204905092915050565b60006102d882610177565b91506102e383610177565b9250817fffffffffffffffffffffffffffffffffffffffffffffffffffffffffffffffff048311821515161561031c5761031b61026d565b5b82820290509291505056fea26469706673582212206ecaf7d5b70a2150117fec29227ec3977af7e3da1051c1bf129c8c5f0b2788d064736f6c634300080a0033",
  "immutableReferences": {},
  "source": "// SPDX-License-Identifier: MIT\npragma solidity ^0.8.0;\n\nimport \"./TweetherToken.sol\";\n\ncontract TweetherICO {\n  TweetherToken token;\n\n  uint256 public RATE = 1000;\n\n  constructor(address _tokenAddress) {\n    token = TweetherToken(_tokenAddress);\n  }\n\n  function _getTokenAmount(uint256 _weiAmount) internal view returns (uint256) {\n    return (_weiAmount / (10 ** 18)) * RATE;\n  }\n\n  receive() external payable {\n    uint256 _amount = _getTokenAmount(msg.value);\n\n    token.transfer(msg.sender, _amount);\n  }\n}\n",
  "sourcePath": "/Users/yoelpc4/Sites/Nuxtjs/tweether/contracts/token/TweetherICO.sol",
  "compiler": {
    "name": "solc",
    "version": "0.8.10+commit.fc410830.Emscripten.clang"
  },
  "schemaVersion": "3.4.4",
  "updatedAt": "2022-02-22T12:03:15.892Z",
  "networkType": "ethereum",
  "devdoc": {
    "kind": "dev",
    "methods": {},
    "version": 1
  },
  "userdoc": {
    "kind": "user",
    "methods": {},
    "version": 1
  }
}