{
  "contractName": "UserStorage",
  "abi": [
    {
      "inputs": [
        {
          "internalType": "address",
          "name": "",
          "type": "address"
        }
      ],
      "name": "addresses",
      "outputs": [
        {
          "internalType": "uint256",
          "name": "",
          "type": "uint256"
        }
      ],
      "stateMutability": "view",
      "type": "function",
      "constant": true
    },
    {
      "inputs": [
        {
          "internalType": "address",
          "name": "_controllerAddress",
          "type": "address"
        }
      ],
      "name": "setControllerAddress",
      "outputs": [],
      "stateMutability": "nonpayable",
      "type": "function"
    },
    {
      "inputs": [
        {
          "internalType": "address",
          "name": "_ownerAddress",
          "type": "address"
        }
      ],
      "name": "transferOwnership",
      "outputs": [],
      "stateMutability": "nonpayable",
      "type": "function"
    },
    {
      "inputs": [
        {
          "internalType": "bytes32",
          "name": "",
          "type": "bytes32"
        }
      ],
      "name": "usernames",
      "outputs": [
        {
          "internalType": "uint256",
          "name": "",
          "type": "uint256"
        }
      ],
      "stateMutability": "view",
      "type": "function",
      "constant": true
    },
    {
      "inputs": [
        {
          "internalType": "uint256",
          "name": "",
          "type": "uint256"
        }
      ],
      "name": "users",
      "outputs": [
        {
          "internalType": "uint256",
          "name": "id",
          "type": "uint256"
        },
        {
          "internalType": "bytes32",
          "name": "username",
          "type": "bytes32"
        },
        {
          "internalType": "bytes32",
          "name": "firstName",
          "type": "bytes32"
        },
        {
          "internalType": "bytes32",
          "name": "lastName",
          "type": "bytes32"
        },
        {
          "internalType": "string",
          "name": "bio",
          "type": "string"
        },
        {
          "internalType": "string",
          "name": "gravatarEmail",
          "type": "string"
        }
      ],
      "stateMutability": "view",
      "type": "function",
      "constant": true
    },
    {
      "inputs": [
        {
          "internalType": "address",
          "name": "_address",
          "type": "address"
        },
        {
          "internalType": "bytes32",
          "name": "_username",
          "type": "bytes32"
        },
        {
          "internalType": "bytes32",
          "name": "_firstName",
          "type": "bytes32"
        },
        {
          "internalType": "bytes32",
          "name": "_lastName",
          "type": "bytes32"
        },
        {
          "internalType": "string",
          "name": "_bio",
          "type": "string"
        },
        {
          "internalType": "string",
          "name": "_gravatarEmail",
          "type": "string"
        }
      ],
      "name": "createUser",
      "outputs": [
        {
          "internalType": "uint256",
          "name": "",
          "type": "uint256"
        }
      ],
      "stateMutability": "nonpayable",
      "type": "function"
    }
  ],
  "bytecode": "0x6080604052600060055534801561001557600080fd5b50336000806101000a81548173ffffffffffffffffffffffffffffffffffffffff021916908373ffffffffffffffffffffffffffffffffffffffff160217905550610c2f806100656000396000f3fe608060405234801561001057600080fd5b50600436106100625760003560e01c8063365b98b21461006757806382d389541461009c578063d399e63d146100cc578063ec4d88d7146100fc578063f2fde38b1461012c578063f3d3d44814610148575b600080fd5b610081600480360381019061007c91906106ca565b610164565b604051610093969594939291906107b8565b60405180910390f35b6100b660048036038101906100b19190610885565b6102b0565b6040516100c391906108b2565b60405180910390f35b6100e660048036038101906100e19190610a2e565b6102c8565b6040516100f391906108b2565b60405180910390f35b61011660048036038101906101119190610af3565b610454565b60405161012391906108b2565b60405180910390f35b61014660048036038101906101419190610885565b61046c565b005b610162600480360381019061015d9190610885565b610541565b005b600260205280600052604060002060009150905080600001549080600101549080600201549080600301549080600401805461019f90610b4f565b80601f01602080910402602001604051908101604052809291908181526020018280546101cb90610b4f565b80156102185780601f106101ed57610100808354040283529160200191610218565b820191906000526020600020905b8154815290600101906020018083116101fb57829003601f168201915b50505050509080600501805461022d90610b4f565b80601f016020809104026020016040519081016040528092919081815260200182805461025990610b4f565b80156102a65780601f1061027b576101008083540402835291602001916102a6565b820191906000526020600020905b81548152906001019060200180831161028957829003601f168201915b5050505050905086565b60036020528060005260406000206000915090505481565b6000600160009054906101000a900473ffffffffffffffffffffffffffffffffffffffff1673ffffffffffffffffffffffffffffffffffffffff163373ffffffffffffffffffffffffffffffffffffffff161461032457600080fd5b6005600081548092919061033790610bb0565b91905055506040518060c001604052806005548152602001878152602001868152602001858152602001848152602001838152506002600060055481526020019081526020016000206000820151816000015560208201518160010155604082015181600201556060820151816003015560808201518160040190805190602001906103c49291906105dd565b5060a08201518160050190805190602001906103e19291906105dd565b50905050600554600360008973ffffffffffffffffffffffffffffffffffffffff1673ffffffffffffffffffffffffffffffffffffffff16815260200190815260200160002081905550600554600460008881526020019081526020016000208190555060055490509695505050505050565b60046020528060005260406000206000915090505481565b60008054906101000a900473ffffffffffffffffffffffffffffffffffffffff1673ffffffffffffffffffffffffffffffffffffffff163373ffffffffffffffffffffffffffffffffffffffff16146104c457600080fd5b600073ffffffffffffffffffffffffffffffffffffffff168173ffffffffffffffffffffffffffffffffffffffff1614156104fe57600080fd5b806000806101000a81548173ffffffffffffffffffffffffffffffffffffffff021916908373ffffffffffffffffffffffffffffffffffffffff16021790555050565b60008054906101000a900473ffffffffffffffffffffffffffffffffffffffff1673ffffffffffffffffffffffffffffffffffffffff163373ffffffffffffffffffffffffffffffffffffffff161461059957600080fd5b80600160006101000a81548173ffffffffffffffffffffffffffffffffffffffff021916908373ffffffffffffffffffffffffffffffffffffffff16021790555050565b8280546105e990610b4f565b90600052602060002090601f01602090048101928261060b5760008555610652565b82601f1061062457805160ff1916838001178555610652565b82800160010185558215610652579182015b82811115610651578251825591602001919060010190610636565b5b50905061065f9190610663565b5090565b5b8082111561067c576000816000905550600101610664565b5090565b6000604051905090565b600080fd5b600080fd5b6000819050919050565b6106a781610694565b81146106b257600080fd5b50565b6000813590506106c48161069e565b92915050565b6000602082840312156106e0576106df61068a565b5b60006106ee848285016106b5565b91505092915050565b61070081610694565b82525050565b6000819050919050565b61071981610706565b82525050565b600081519050919050565b600082825260208201905092915050565b60005b8381101561075957808201518184015260208101905061073e565b83811115610768576000848401525b50505050565b6000601f19601f8301169050919050565b600061078a8261071f565b610794818561072a565b93506107a481856020860161073b565b6107ad8161076e565b840191505092915050565b600060c0820190506107cd60008301896106f7565b6107da6020830188610710565b6107e76040830187610710565b6107f46060830186610710565b8181036080830152610806818561077f565b905081810360a083015261081a818461077f565b9050979650505050505050565b600073ffffffffffffffffffffffffffffffffffffffff82169050919050565b600061085282610827565b9050919050565b61086281610847565b811461086d57600080fd5b50565b60008135905061087f81610859565b92915050565b60006020828403121561089b5761089a61068a565b5b60006108a984828501610870565b91505092915050565b60006020820190506108c760008301846106f7565b92915050565b6108d681610706565b81146108e157600080fd5b50565b6000813590506108f3816108cd565b92915050565b600080fd5b600080fd5b7f4e487b7100000000000000000000000000000000000000000000000000000000600052604160045260246000fd5b61093b8261076e565b810181811067ffffffffffffffff8211171561095a57610959610903565b5b80604052505050565b600061096d610680565b90506109798282610932565b919050565b600067ffffffffffffffff82111561099957610998610903565b5b6109a28261076e565b9050602081019050919050565b82818337600083830152505050565b60006109d16109cc8461097e565b610963565b9050828152602081018484840111156109ed576109ec6108fe565b5b6109f88482856109af565b509392505050565b600082601f830112610a1557610a146108f9565b5b8135610a258482602086016109be565b91505092915050565b60008060008060008060c08789031215610a4b57610a4a61068a565b5b6000610a5989828a01610870565b9650506020610a6a89828a016108e4565b9550506040610a7b89828a016108e4565b9450506060610a8c89828a016108e4565b935050608087013567ffffffffffffffff811115610aad57610aac61068f565b5b610ab989828a01610a00565b92505060a087013567ffffffffffffffff811115610ada57610ad961068f565b5b610ae689828a01610a00565b9150509295509295509295565b600060208284031215610b0957610b0861068a565b5b6000610b17848285016108e4565b91505092915050565b7f4e487b7100000000000000000000000000000000000000000000000000000000600052602260045260246000fd5b60006002820490506001821680610b6757607f821691505b60208210811415610b7b57610b7a610b20565b5b50919050565b7f4e487b7100000000000000000000000000000000000000000000000000000000600052601160045260246000fd5b6000610bbb82610694565b91507fffffffffffffffffffffffffffffffffffffffffffffffffffffffffffffffff821415610bee57610bed610b81565b5b60018201905091905056fea2646970667358221220962c8369e27652245962b8c842fe9777a03060c4b9949a2cceee06ffc10d66cf64736f6c634300080a0033",
  "immutableReferences": {},
  "source": "// SPDX-License-Identifier: MIT\npragma solidity ^0.8.0;\n\nimport '../helpers/BaseStorage.sol';\n\ncontract UserStorage is BaseStorage {\n  struct User {\n    uint id;\n    bytes32 username; // use bytes32 instead of string because username usually short\n    bytes32 firstName;\n    bytes32 lastName;\n    string bio;\n    string gravatarEmail;\n  }\n\n  // hash map to store user's profile with their id as the key\n  mapping(uint => User) public users;\n\n  mapping(address => uint) public addresses;\n\n  mapping(bytes32 => uint) public usernames;\n\n  uint latestUserId = 0;\n\n  function createUser(\n    address _address,\n    bytes32 _username,\n    bytes32 _firstName,\n    bytes32 _lastName,\n    string memory _bio,\n    string memory _gravatarEmail\n  ) public onlyController returns (uint) {\n    latestUserId++;\n\n    users[latestUserId] = User(\n      latestUserId,\n      _username,\n      _firstName,\n      _lastName,\n      _bio,\n      _gravatarEmail\n    );\n\n    addresses[_address] = latestUserId;\n\n    usernames[_username] = latestUserId;\n\n    return latestUserId;\n  }\n}\n",
  "sourcePath": "/Users/yoelpc4/Sites/Nuxtjs/tweether/contracts/users/UserStorage.sol",
  "compiler": {
    "name": "solc",
    "version": "0.8.10+commit.fc410830.Emscripten.clang"
  },
  "schemaVersion": "3.4.4",
  "updatedAt": "2022-02-22T12:03:14.131Z",
  "networkType": "ethereum",
  "devdoc": {
    "kind": "dev",
    "methods": {},
    "version": 1
  },
  "userdoc": {
    "kind": "user",
    "methods": {},
    "version": 1
  }
}